:020000022000DC
:108000000060002079830200618302006383020024
:10801000658302006783020069830200000000009C
:10802000000000000000000000000000D1CD0200B0
:108030006D830200000000006F8302007183020064
:108040007383020073830200738302007383020050
:108050007383020000000000738302007383020038
:108060007383020073830200738302007383020030
:108070007383020073830200738302007383020020
:10808000EDB30200B5B002007383020073830200F7
:108090007383020073830200CDCF0200738302005A
:1080A00073830200738302000000000000000000E0
:1080B00073830200738302000000000000000000D0
:1080C00000000000000000000000000000000000B0
:1080D00000000000000000000000000000000000A0
:1080E0000000000000000000000000000000000090
:1080F0000000000000000000000000000000000080
:10810000000000000000000000000000000000006F
:10811000000000000000000000000000000000005F
:10812000000000000000000000000000000000004F
:10813000000000000000000000000000000000003F
:10814000000000000000000000000000000000002F
:10815000000000000000000000000000000000001F
:10816000000000000000000000000000000000000F
:1081700000000000000000000000000000000000FF
:1081800000000000000000000000000000000000EF
:1081900000000000000000000000000000000000DF
:1081A00000000000000000000000000000000000CF
:1081B00000000000000000000000000000000000BF
:1081C00000000000000000000000000000000000AF
:1081D000000000000000000000000000000000009F
:1081E000000000000000000000000000000000008F
:1081F000000000000000000000000000000000007F
:10820000364937480A1A02D0072291438D4635492C
:1082100035480A1A06D00722914381F309880222C1
:1082200082F3148831483249324A00F045F8324826
:108230003249334A00F040F832483349334A00F0BB
:108240003BF833483349344A00F036F83348344970
:10825000344A00F031F834483449354A00F02CF8FB
:1082600034483549354A00F027F835483549002269
:1082700000F02DF834483549002200F028F8344841
:108280003449091A082903DB002202600430016026
:10829000314A90471F482049884205D0026804307F
:1082A00003B4904703BCF7E700208646EC46002065
:1082B00000212A4A9047FEE7884207D0521A05D08B
:1082C000037801300B700131013AF9D170478842CF
:1082D00002D002700130FAE7704700000060002011
:1082E00000580020006000200060002074D70200C9
:1082F000A4230020DC230020C4830200C4830200E6
:10830000ECD2020074D70200A4230020A423002092
:1083100058D3020058D3020058D3020058D30200A9
:1083200058D3020058D3020058D3020058D3020099
:1083300074D70200ACD70200DC230020DC2300202D
:10834000DC230020084300200843002008430020CD
:1083500008430020084300208F830200219D020073
:10836000FEE7FEE7FEE7FEE7FEE7FEE7FEE7FEE7E5
:10837000FEE7FEE7704700BF0C4880470C484FF00F
:108380000701884385460B488047FFF739BF0A48F5
:108390000A490B4A884207D0521A05D003780130A7
:1083A0000B700131013AF9D170470000758302006A
:1083B00000600020D9B4020044D3020090230020C2
:0483C000A4230020D2
:1083C40012F0030310B511D1094C22604C1CE400D7
:1083D400A4B22244074C2260074A1370074A137060
:1083E400074A1080074A1846118010BD0720FCE791
:1083F400E4230020E0230020DC230020EC230020E1
:10840400E8230020EA2300202DE9F3472B4D2B8895
:108414008B4206460C4617464BD302A84FF0000881
:1084240000F8018D00F088F8254B264A1878117859
:10843400CBB2254909888B4238BF0133C0B238BF5B
:108444005FFA83F840452ED092F800801378DBB2AF
:10845400994286BF0133DBB2002313709DF80700F5
:1084640000F08EF84FF6FF73984524D0DFF860A033
:10847400DAF800304FEAC80903EB090243F8387010
:10848400A6B19CB1114B28881B68224608FB00301A
:10849400314604F09DFEDAF800304B4400209C8005
:1084A40002B0BDE8F0874FF6FF78D7E70020908050
:1084B400F6E70920F4E70420F2E700BFE8230020F0
:1084C400EC230020DC230020EA230020E02300200A
:1084D400E4230020F8B5124C124D264622782B785E
:1084E4009A4200D1F8BD23780F48104A07881268D1
:1084F4000F48DBB219B202EBC10C006852F831200C
:10850400BCF8041003FB070090470A4A237812883A
:10851400DBB29A4286BF0133DBB200233370DDE75E
:10852400EC230020DC230020E8230020E4230020A7
:10853400E0230020EA23002070B5EFF3108672B622
:108544000C4A946801239CB993600B4B0B4DD3F8F0
:10855400801029401160C3F88050D3F88410516012
:108564004FF0FF32C3F88420047006B962B670BDC0
:108574000370FAE7F023002000E100E0FC06FFBDF1
:10858400084B9A6810B55AB150B9EFF3108172B61E
:10859400054A1C6814605C685460986001B962B64E
:1085A40010BD00BFF023002000E100E030B53AB177
:1085B4001368DB430B4C0144884204D1D84330BDDB
:1085C4004FF0FF33F6E710F8012B5340082213F065
:1085D400010F14BF25460025013A85EA5303F6D15D
:1085E400EAE700BF2083B8ED10B561B1B2FBF3F444
:1085F40003FB1424A4B244B9C0E90014846082814A
:10860400C381204610BD0E20FCE70920FAE782B0A2
:1086140050E8022FC188B2EB324F4FF0000317BF6E
:1086240092B241EA014142EA014104E04268B2EBFC
:10863400324F08BF012340E80212002AE8D18DF826
:1086440007309DF80730002B0CBF1120002002B02A
:10865400704737B550E8013F9DB2C48925448489E9
:10866400A54228BF2D1B0489A54202BFBFF32F8F4B
:10867400002207E0C5EA030540E80154002CE9D1D3
:108684004FF001028DF803200193019B9DF8032014
:108694000B6002F0FF0322B10B880068184403B09A
:1086A40030BD1846FBE70A884B889A4209D150E846
:1086B400012FC2EA024240E80123002BF7D1012036
:1086C40070470020704737B550E8023F1FFAA3F502
:1086D400C488A54202BFBFF32F8F00220DE0C489D6
:1086E40025448489A54228BF2D1BC3EA054540E8DB
:1086F4000254002CE8D14FF001028DF803200193BD
:10870400019B9DF803200B6002F0FF0322B14B880C
:108714000068184403B030BD1846FBE70A884B884C
:108724009A4209D150E8022FC2EA224240E80223C9
:10873400002BF7D1012070470020704750E8002F2C
:1087440042EA010340E8003C9CF0000FF6D11046D9
:10875400704750E8003F03EA010240E8002C9CF017
:10876400000FF6D1104670470121FFF7E7BF002143
:10877400FFF7EFBF10B590B1D0E9012301689B1A50
:10878400DBB20A60013BDBB2FF2B026802D100209E
:10879400107110BD11684C1C14600B70F2E70E20B0
:1087A400F7E737B5054602A8002400F8014DFFF7A6
:1087B400C3FE2A686B68116899420ED9481E10607E
:1087C40011F8014CEB68298A01FB0434AB68117978
:1087D4001B1ADBB2994238BF13719DF80700FFF7EB
:1087E400CFFE204603B030BD37B5054602A80023AE
:1087F40000F8013D0C46FFF79FFE2A681368591CD8
:108804001160E968641A298AB4FBF1F41C709DF8BC
:108814000700FFF7B5FE03B030BD01600B681146D9
:10882400184710B40468E468A44610BC604710B448
:1088340004682469A44610BC604700002DE9F04197
:1088440008B10368C3B90E4E0E4B14229B1B0024BF
:10885400B3FBF2F3374602FB03F5A54201D1002036
:1088640008E03B5930190BB91434F6E7DB69984733
:108874000028F9D0BDE8F081DB69BDE8F041184774
:1088840090230020A4230020014B43600020704764
:1088940058D302000846704700207047024B1868FE
:1088A400003018BF01207047FC23002008B502489F
:1088B400FFF75DFF002008BDFC23002008B510462B
:1088C4001A4604F085FC002008BD00002DE9F041A3
:1088D400804686B013480E4615461F46FFF744FFF0
:1088E400044630B1112018E006EB043001F096F88C
:1088F4000134A542F8D10B48FFF739FFD8F8083006
:1089040000246BB1022268468DF80020CDE90146AF
:10891400CDE9034505979847204606B0BDE8F081A8
:108924001846FAE7FC2300202DE9F041804686B082
:1089340012480F4616461D46FFF716FF0446D8B9DF
:10894400AA083146384601F081F80C48FFF70FFFBA
:10895400D8F8083073B101228DF800200C9A0592E2
:108964006846CDE90147CDE903659847204606B03E
:10897400BDE8F0811846FAE71120F8E7FC2300204F
:1089840029DF704728DF704770B503689D6886B09B
:1089940004460E466DB114220021684604F041FCE1
:1089A400A3680593237901962BB1012B0DD068465A
:1089B400A84706B070BD01238DF8003023690293E7
:1089C400E368039363690493F1E702238DF80030AD
:1089D400E3681B030293F5E70846704700207047DD
:1089E400024B187A003018BF01207047EC25002094
:1089F400034B187A0122B0FA80F05A744009704788
:108A0400EC25002008B510461A4604F0E1FB0020CE
:108A140008BD000008B514220021044804F001FC3C
:108A24000348FFF7F4FD002008BD00BFEC2500203B
:108A3400DC25002010B5094C094B43602046FFF7A4
:108A440093FE48B904F0A6FA1C2320744FF4EE7286
:108A540004490548FFF7C8FD002010BDEC2500209F
:108A640084D3020000240020DC25002070B5234DAF
:108A7400234E2B7A2C463BB922492348FFF723FE89
:108A8400306008B9686070BD0223237233681A79B4
:108A940072B1012A22D018460321FFF775FF002383
:108AA4002372636017491848BDE87040FFF736BE6B
:108AB400D3E90520121A142A28BF1422D3E9031576
:108AC4009208012A014438BF01222844FFF758FFC5
:108AD40050B11128DFD101232372D4E7D3E9030273
:108AE4001044FFF74FFFF3E7237C002BCBD1014663
:108AF400BDE87040022000F009B800BFEC2500205A
:108B04000426002000260020DC25002038B5831E22
:108B1400012B43D8224C237A002B3FD0022B09D1BE
:108B240003282ED01F4B1B680022E2601A793AB149
:108B3400012A20D0637C6BBBBDE83840FFF796BFA9
:108B4400D3E905128D1A142D94BF521914329A6167
:108B54009142EFD102284FF0000308BF1946237257
:108B6400104B18BF0D211868FFF70EFF0E490F4870
:108B7400FFF7D4FDDEE71A6901321A615B699A4294
:108B8400E7E7E3680133082B01D8E360D2E7002369
:108B9400E360DFE7BDE8384004F0ECB938BD00BF5E
:108BA400EC2500200426002000260020DC250020DF
:108BB40000F0FD03012B08D1044B00225A74421E1D
:108BC400504250411874FFF751BF7047EC25002004
:108BD40010B5064C201DFFF7C7FD28B9637C1BB9EF
:108BE400BDE81040FFF742BF10BD00BFEC250020D8
:108BF4002DE9F34180460D460F4801A916461F464C
:108C0400FFF727FD0446A8B11C22002104F009FB4C
:108C14002D0B0123237101A9C4F80080A760E5602E
:108C240066610548FFF73FFDFFF7D2FF002002B061
:108C3400BDE8F0810420FAE7DC2500202DE9F743A4
:108C440081468846104801A917461E46FFF701FDD4
:108C54000446B0B11C22002104F0E3FA00250A9B6B
:108C6400A36001A92571C4F80090C4E90378666182
:108C74000548FFF718FDFFF7ABFF284603B0BDE832
:108C8400F0830420FAE700BFDC2500200B684A6863
:108C94004360934208BF0023016008BF43607047EC
:108CA400436843B10268916852680B44934243603D
:108CB40004BF0023436070472DE9F04F0022C9B080
:108CC4004B780C781B0443EA0463CC7823438C78F8
:108CD40043EA042308AC0431A3500432402AEFD100
:108CE400234638AD996B1E464FEAF14282EA71423F
:108CF40082EA9122716A366853F8044F31440A4477
:108D04004FEAB44181EAF41181EAD4010A449D4254
:108D1400DA63E7D1036D0093436D0193836D02938E
:108D2400C36D0393036E0493436E0593836E06939E
:108D3400DDE905ECC36E009CDFF8AC900793DDE938
:108D44000381DDE901659B4600274FEAF12383EAAD
:108D5400B11383EA716A59F827301A4608AB53F8FD
:108D640027301A44134653442CEA010201EA0E0A3E
:108D740082EA0A021A444FEA743A86EA05035A441C
:108D84008AEAB40A06EA050B234083EA0B038AEA5B
:108D9400B45A01379A44402F02EB0803E346524485
:108DA400A8461AD1009F1744019A076522444265D8
:108DB400029A32448265039A2A44C265049A1A4488
:108DC400059B02660B444366069B73448366079BBC
:108DD4006344C36649B0BDE8F08FF44635468E4619
:108DE400264619461446B0E7B0D3020030B5E0B1C8
:108DF4000F4A104900240025C0E91245C0E91412A5
:108E04000D4C0E4A0E4DC0E916420E4AC0E91852E6
:108E14000D4A826602F17452A2F523020023A2F6DF
:108E240092420364C266184630BD0E20FCE700BFC0
:108E340085AE67BB67E6096A72F36E3C3AF54FA5E7
:108E44007F520E518C68059BABD9831FF8B504463D
:108E5400F0B10AB90020F8BDD1B10D468E18002733
:108E6400B542F7D0236C15F8012BE2540133402BA3
:108E74002364F5D121462046FFF71EFFD4E91201F1
:108E840010F5007241F10003C4E912232764E7E7F7
:108E94000E20E0E72DE978480D46164604460028E2
:108EA40000F08480002900F08180026C8021372A40
:108EB40002F1010381544FF000024DD8382B46D102
:108EC400D4E91223206C0821E1FB002322FA01F1EA
:108ED400934684F83F2084F83E10110C120E84F857
:108EE4003C201A0A9C4684F83B3084F83A201A0C39
:108EF4001B0E84F83D10C4E912BC214684F83920C5
:108F040084F838302046FFF7D7FE691E7EB300236D
:108F1400E26EDA4001F8012FA26EDA400A71626E45
:108F2400DA400A72226EDA400A73E26DDA400A7499
:108F3400A26DDA400A75626DDA400A76226DDA4073
:108F44000833202B0A77E3D10020BDE87888E25467
:108F54000133B3E7E25401333F2BFBD921462046CA
:108F6400FFF7AAFE3822002104F05BF9A8E71823D2
:108F7400226DDA4001F8012F626DDA400A71A26DA8
:108F8400DA400A72E26DDA400A73226EDA400A7439
:108F9400626EDA400A75A26EDA400A76E26EDA4050
:108FA400083B13F1080F0A77E2D1CDE70E20CCE796
:108FB40043689B68184708B5436808305A7900F03D
:108FC40062FE002008BD2DE9F0430D469BB0084623
:108FD40099469046FFF7ECFF6E6874794C4528BFBC
:108FE4004C4607462246414602A800F041FE7279EB
:108FF40022990AA800F047FE00970AAB224602A96C
:1090040005F1080001F014FD002848F2425018BF91
:1090140000201BB0BDE8F0830023C0E90232C0E9A0
:1090240000118B781A44026191F903301A444261A9
:109034000878003018BF0120704738B542681178AD
:109044000346002938D002F10C014160147B2CB98D
:10905400C2680168FFF7E0FF204638BD50781179F7
:1090640000F03005302D14D1547B04F03004302C42
:109074000FD190781969091A19610021907B08446D
:1090840019690144196192F90F20114459610120B1
:10909400E3E700F0F004202C08D1507910FB01F133
:1090A400002DEBD1986801309860E7E700F0C0002C
:1090B400802808BF0421F3E70846CEE770B5456869
:1090C40004460E4663681A78B24204D15B7803F012
:1090D4000F03082B07D12046FFF7AFFF6368AB42AD
:1090E400F0D1002070BD0120FCE743681A444260BF
:1090F40011B101399A4201D10120704713F8010BD3
:1091040001F8010FF6E7836810B504460BB9002097
:1091140010BD0368012298470028F8D0A368013BDA
:10912400A360F5E72DE9F3410F460DF107018046F1
:10913400FFF7E9FF064620B90026304602B0BDE835
:10914400F0819DF80740220613D504F07F0407251B
:109154000DF107014046FFF7D6FF0028ECD09DF83B
:10916400072002F07F03AB401C43130605F10705FB
:1091740001D43C60E1E7232DEAD1DDE770B5456811
:109184006A7802F00F06082E86B003461FD10369E1
:109194001C6800260CB906B070BD236862689D681F
:1091A400267329466846FFF737FF6368049304F182
:1091B4000C0305936B7803F0C003802B08BF231DB9
:1091C400684608BF0493FFF7D9FFA468E2E712F0EA
:1091D400C0011CD102F0300010280AD15A69117064
:1091E400072EAC68186909D10146204600F017F82B
:1091F400D1E79006F4D55B691970CCE72A7921464A
:1092040014B103F0E5FFC6E704F00BF8C3E78029C7
:10921400C1D10069002192060160BCD5EBE77FB59E
:109224000A4601466846FFF7F7FE30B16846FFF785
:10923400A5FF6846FFF701FFF7E707B05DF804FBF9
:1092440030B5044685B01546A9B90268114B9A4257
:1092540011D0102D06D82A4669462046FFF7F0FFA4
:1092640005B030BD102269462046FFF7E9FF00280B
:10927400F6D0103DEDE7A368AB4201D20020EFE742
:1092840023682A46204698470028F7D0A3685D1B28
:10929400A560E5E7EF900200F7B50E4601A9074681
:1092A4001546FFF73FFFA8B1019A0123D3184FF0E9
:1092B400000404D2717801F0C001802901D1204654
:1092C40008E031799942FAD329463846FFF7B8FFC6
:1092D400019BEC5403B0F0BD73B50D4601A90646DD
:1092E4001446FFF71FFF88B1019AFF2A10D86B7844
:1092F40003F0C003802B0BD02979531C994207D368
:109304002146304601F8012BFFF79AFF02B070BDE9
:109314000020FBE710B5034C82600022C0E9004145
:10932400C26010BDEF9002002DE9F04F824685B077
:109334000D464FF000084FF0000900240DF10F0115
:109344005046FFF7E0FEF8B19DF80F1001F07F02E0
:109354005FFA82FB4FF0000CCDE900BC009AA4F147
:10936400200CC4F1200322FA03F302FA0CF71F4382
:109374001346A34048EA03080B0649EA070904F127
:10938400070404D4C5E9008905B0BDE8F08F462C74
:10939400D4D10020F8E773B50D4669461446FFF7AB
:1093A400C3FF68B12B79082B0CD1DDE90056C4E961
:1093B4000056DDE90023B34206BFAA420120002083
:1093C40002B070BD042B05D1DDE900012060054623
:1093D4000026EEE7022B03D10098208085B2F7E740
:1093E400012B05D1DDE90001207000F0FF05EFE756
:1093F4000020E5E737B50D4669461446FFF794FFAC
:1094040030B12A79082ADDE9003103D1C4E90031F9
:1094140003B030BD042A18464FEAE37108D1236033
:109424001A460B468B4206BF824201200020EFE71A
:10943400022A04D11BB223801AB2D317F2E7012AFD
:1094440003D15BB223705AB2F7E70020E0E7F7B527
:109454000C46002119702170116001A907461546B8
:109464001E46FFF75FFE30B9BB6813B901233370A2
:10947400002003B0F0BD01990029F7D0CB0801F01A
:1094840007012B602170F4E713B5044605291FD8A2
:10949400DFE801F0030F151E1E1C012201A920465E
:1094A400FFF7CEFE18B19DF90430002BF5DB02B0B6
:1094B40010BD082200212046FFF7C2FEF7E701A9EC
:1094C400FFF730FE0028F2D0019AF3E70422F1E717
:1094D4000020ECE773B50D4601A90446FFF722FE10
:1094E400064618B90026304602B070BD94E80F0055
:1094F40085E80F0001998A42F4D3A960A3685B1A36
:10950400A360F0E72DE9F04155686B7813F0C00EC5
:1095140088B006468C46144604D0BEF1400F68D08D
:10952400002544E003F00F025C4903F03003102BE4
:1095340051F822701DD006D8002BF1D1226929469A
:10954400B847054633E0202B17D0302BE8D16369A8
:1095540029781970072A0AD1636820691A79714633
:1095640003F05FFE636821699868FFF758FE22697B
:109574003CE0636901221A70E0E7BCF1020FD4F801
:10958400148027D1042A25D804A9FFF7A3FF054690
:109594000028C5D0069B2BB1616898F800304A7941
:1095A4009A4208D8059B7360069B002BB8D12846C5
:1095B40008B0BDE8F0810879226900FB032204A801
:1095C400B84728B198F80030013388F80030E1E753
:1095D4000546E7E798F8003021692A7902FB03126F
:1095E400697999429CD9013388F800306168304622
:1095F400A6E717693B6807F1040813B9FFF744FFAE
:109604009FE7022913D104A9FFF764FF002887D03C
:109614003B686168424604A89847054600283FF421
:109624007FAF069B002BF3D1059B7360BFE7012935
:109634002BD009D305297FF473AF04220DEB02016B
:10964400FFF7FEFD042525E0002501AB591901357E
:109654000B2D3FF465AF01223046FFF7F1FD0028E2
:109664003FF45EAF01AB2B4413F9013C002BECDB60
:109674000B4B049301ABCDE9053500230793424618
:109684003B68616804A898475BE7082201A9FFF7D3
:10969400D7FD08250028EBD142E700BFBCD4020067
:1096A400EF9002002DE9F04F91B00446002604A883
:1096B400CDE90266FFF7B0FCA3683BBBDDE90534E6
:1096C40004A85D78FFF7B9FC0028F7D115F0300F36
:1096D40003D1059B1B7803B10134002C00F0A98051
:1096E4006309002202A9934240F09C8010AA02EB75
:1096F400830304F01F04C4F120044FF0FF3053F837
:10970400383CE040C31A584258410DE00DF10303C0
:1097140001AA0DF102012046FFF799FE38B99DF820
:109724000330002BCAD1002011B0BDE8F08F01999D
:1097340004A8FFF7C3FC002850D1019BB3427FD398
:10974400059D059A537803F00F03082B73D004A8E2
:10975400FFF773FC059B9D42F3D14FF0FF36019F49
:10976400B7426DD3089B9DF80290D4F808801D6819
:109774004FF0010AA368002D5FD098459CD12B6857
:10978400D3F800B0BBF1000F08D04B463A46294647
:109794002046D8470028C6D0AD68EBE7D3F808B018
:1097A4009BF800309F42F7D16A6859460AA8FFF730
:1097B40033FC6B680E9305F10C030F939BF8013097
:1097C40003F0C003802B04BF2B1D0E930AAA85F857
:1097D4000CA049462046FFF795FEDBE7059B5B7826
:1097E40013F0300F0FD1069A3F2A0CD8510910AB51
:1097F40003EB810102F01F020123934051F8382C3E
:10980400134341F8383CE5689DF802201DB104ABD0
:1098140001992046A84704AA9DF802102046FFF7A4
:1098240071FE12E051F8225001357FF47DAF013210
:1098340059E7012078E7167891E798457FF43CAF23
:109844009DF802102046FFF71FFE00287FF434AF76
:1098540069E770B50C460646154611462046FFF7E3
:10986400DEFC2A4621463046BDE87040FFF71ABFA9
:10987400F0B585B00C468D68694607461646FFF775
:1098840029FE68B1A06858B1637803F03003202B37
:1098940032462946684605D1FFF7DBFF019B7B6012
:1098A40005B0F0BDFFF7FEFEF8E72DE977480E4658
:1098B4006946FFF739FD88B1DDE90023002502F090
:1098C40001045FEA530C4FEA320B54EA050308D053
:1098D4006FEA0B026FEA0C03C6E9002303B0BDE88C
:1098E4007088C6E900BCF9E737B50D4669461446E9
:1098F400FFF7DBFF68B12B79082B0CD1DDE9000100
:10990400C4E90001DDE900238B4206BF8242012045
:10991400002003B030BD042B03D100982060C11790
:10992400F0E7022B04D1BDF90000208000B2F6E775
:10993400012B04D19DF90000207040B2EFE7002014
:10994400E7E713B504220C460DEB0201FFF778FCA0
:1099540008B1019B236002B010BD1146FFF7F1BFAF
:1099640013B508220C466946FFF76AFC18B1DDE915
:109974000023C4E9002302B010BD1146FFF7F0BF75
:10998400044B1A5C012393404FF0A042C2F80C35FB
:10999400704700BFE0D40200044B1A5C01239340DB
:1099A4004FF0A042C2F80835704700BFE0D402006F
:1099B40008B50020FFF7F0FF0120FFF7EDFF0220BC
:1099C400FFF7EAFF0320BDE80840FFF7E5BFC20741
:1099D40008B501460CD54FF0A0430322C3F8442731
:1099E400C3F84827C3F84C27C3F85027FFF7E0FF14
:1099F4008B070AD54FF0A0430C22C3F83427C3F8D1
:109A04003827C3F83C27C3F8402708BD024AD2F8D8
:109A14000034002BFBD0704700E001400A4908B530
:109A24000223C1F80435BFF36F8FBFF34F8FC1F822
:109A34000805FFF7EBFF0023C1F80435BFF36F8F70
:109A4400BFF34F8F08BD00BF00E001400E4B10B5BF
:109A54000124C3F80445BFF36F8FBFF34F8F01EBAD
:109A64008204401AA14208D1074B0022C3F80425FE
:109A7400BFF36F8FBFF34F8F10BD431851F8042B02
:109A84001A60FFF7C3FFEDE700E0014028B139B1E8
:109A94000023C1E900301846704748F2105070475F
:109AA40048F21350704730B1036848F240508B427B
:109AB40008BF0020704748F21050704728B148F2A0
:109AC4001150914208BF0020704748F2105070476F
:109AD40070B506460C461D46FFF7D8FF50B9B3795A
:109AE4004AB1AB420AD111462046FFF764FA08B9DD
:109AF400044B236070BD48F21050FBE748F211504C
:109B0400F8E700BF7052464D2DE9F0470C46074672
:109B14000F49204615469846DDE90869FFF7C3FF5B
:109B240098B963685A79494652003046FFF7C6FF30
:109B340058B945B1089643462A4621463846BDE8F9
:109B4400F047FFF740BA48F21050BDE8F08700BF75
:109B54007052464D10B5044638B149B141600B68A6
:109B6400984708B9044B236010BD48F20150FBE745
:109B740048F21050F8E700BF6E524648F0B448B1BE
:109B840007680A4EB74209D159B16AB14368F0BCBB
:109B94005B68184748F20150F0BC704748F2025025
:109BA400FAE748F21050F7E71046F5E76E524648D8
:109BB400F0B460B107680C4EB7420CD171B1436880
:109BC4001568DC68A5420CD39B68F0BC184748F2C2
:109BD4000150F0BC704748F20250FAE748F21350C3
:109BE400F7E748F21450F4E76E5246482DE9F04185
:109BF400044617469846DDE90656FFF7ABFF60B901
:109C0400424639462046FFF7B9FF30B93246294665
:109C14002046BDE8F041FFF7CBBFBDE8F08100006E
:109C2400F8B50A4F0A4C0B4DE41B0121E4082970D6
:109C34000026A64203D102232B700020F8BD57F85A
:109C4400363098470028F9D10136F2E7ECD2020009
:109C5400ECD202000826002001390144884200D9D0
:109C6400704703780A7800F8012B01F80139F5E709
:109C7400013A02440139824200D2704711F8013F8F
:109C840002F80139F7E770B516460D46FFF7F0FF05
:109C94003246A9193044BDE87040FFF7E9BF38B532
:109CA4000D460446FFF7D8FF29466019BDE8384041
:109CB400FFF7D2BFBFF34F8F0549064BCA6802F4C2
:109CC400E0621343CB60BFF34F8F00BFFDE700BFDB
:109CD40000ED00E00400FA0508B5072817D8DFE80E
:109CE40000F004121616160416040120FFF76FFE86
:109CF4000020FFF745FE0120FFF742FE0220BDE8E9
:109D04000840FFF73DBE0120FFF746FEF6E708BD19
:109D140008B5FFF7CFFF08B5FFF7CCFF00221046C8
:109D240010B54FF4805101F0E9F8024608B1FFF78D
:109D3400C1FF0848C0F5383101F0E0F80028F6D139
:109D4400054801F037F804460028F0D101F0C4F8C2
:109D5400204610BD00800200DD9C02008B180244E6
:109D64008B4200D1704713F8010D02F8010DF7E79B
:109D7400000000000000000000000000C3F1080320
:109D8400DB0070B50133002403A500BF5B1920C9B3
:109D940040CAAD1920C0184720C940CA754120C027
:109DA40020C940CA754120C020C940CA754120C09D
:109DB40020C940CA754120C020C940CA754120C08D
:109DC40020C940CA754120C020C940CA754120C07D
:109DD4006441204670BD00BF00000000C3F10803C9
:109DE400DB0070B50133002403A500BF5B1920C953
:109DF40040CAAD1B20C0184720C940CAB54120C085
:109E040020C940CAB54120C020C940CAB54120C0BC
:109E140020C940CAB54120C020C940CAB54120C0AC
:109E240020C940CAB54120C020C940CAB54120C09C
:109E34006441B4FA84F0400970BD00BF2DE9F04FCD
:109E440008B4F8CA04B451F8042BA3FB028940F8FF
:109E5400048B4FF0000AE4FB629A4FF0000BE5FB21
:109E640062AB4FF0000CE6FB62BC4FF0000EE7FB68
:109E740062CE51F8042B4FF00008E3FB628940F8EE
:109E8400048BE4FB629AE5FB62ABE6FB62BCE7FB96
:109E940062CE51F8042B4FF00008E3FB628940F8CE
:109EA400048BE4FB629AE5FB62ABE6FB62BCE7FB76
:109EB40062CE51F8042B4FF00008E3FB628940F8AE
:109EC400048BE4FB629AE5FB62ABE6FB62BCE7FB56
:109ED40062CE51F8042B4FF00008E3FB628940F88E
:109EE400048BE4FB629AE5FB62ABE6FB62BCE7FB36
:109EF40062CE40F8049B40F804AB40F804BB40F841
:109F040004CB40F804EB0CBC052B00F01E810C685C
:109F1400A0F11400A1F11401A2F1140252F804EB0F
:109F24004FF0000550F8046BE4FB6E5652F804EB56
:109F340050F8047BE4FB6E6752F804EB50F8048B92
:109F4400E4FB6E7852F804EB50F8049BE4FB6E8952
:109F540052F804EB50F804ABE4FB6E9AA0F1140041
:109F640052F8044B51F804EB4FF0000CE4FB6EC5BF
:109F740040F804CB51F804EBE4FB6E5640F8045B64
:109F840051F804EBE4FB6E6740F8046B51F804EB02
:109F9400E4FB6E7840F8047B51F804EBE4FB6E8933
:109FA40040F8048B51F804EBE4FB6E9AA0E8000639
:109FB400062B00F0CA800C68A0F11800A1F118016A
:109FC400A2F1180252F804EB4FF0000550F8046BAC
:109FD400E4FB6E5652F804EB50F8047BE4FB6E6726
:109FE40052F804EB50F8048BE4FB6E7852F804EB5F
:109FF40050F8049BE4FB6E8952F804EB50F804AB70
:10A00400E4FB6E9A52F804EB50F804BBE4FB6EAB2D
:10A01400A0F1180052F8044B51F804EB4FF0000C77
:10A02400E4FB6EC540F804CB51F804EBE4FB6E5638
:10A0340040F8045B51F804EBE4FB6E6740F8046BF2
:10A0440051F804EBE4FB6E7840F8047B51F804EB20
:10A05400E4FB6E8940F8048B51F804EBE4FB6E9A40
:10A0640040F8049B51F804EBE4FB6EABA0E8000C51
:10A07400072B6AD008B40C68A0F11C00A1F11C01E4
:10A08400A2F11C0252F804EB4FF0000550F8046BE7
:10A09400E4FB6E5652F804EB50F8047BE4FB6E6765
:10A0A40052F804EB50F8048BE4FB6E7852F804EB9E
:10A0B40050F8049BE4FB6E8952F804EB50F804ABAF
:10A0C400E4FB6E9A52F804EB50F804BBE4FB6EAB6D
:10A0D40052F804EB50F804CBE4FB6EBCA0F11C0076
:10A0E40052F8044B51F804EB4FF00003E4FB6E35D7
:10A0F40040F8043B51F804EBE4FB6E5640F8045B73
:10A1040051F804EBE4FB6E6740F8046B51F804EB80
:10A11400E4FB6E7840F8047B51F804EBE4FB6E89B1
:10A1240040F8048B51F804EBE4FB6E9A40F8049B6E
:10A1340051F804EBE4FB6EAB40F804AB51F804EBCC
:10A14400E4FB6EBCA0E8001808BCBDE8F08F002357
:10A1540010B51C465AB2914200DC10BD40F82340B1
:10A164000133F7E710B500231A465CB2A14203DCC1
:10A17400B2FA82F0400910BD50F823400133224363
:10A18400F3E74A11012350F8220001F01F0103FAFA
:10A1940001F108407047013949B2002904DA01315C
:10A1A40049B231B90846704750F82130002BF2D03B
:10A1B400F5E701F18043013B50F82330002023B937
:10A1C400013900EB411108B270475B080130F6E732
:10A1D40010B500235CB2A24200DC10BD51F823404C
:10A1E40040F823400133F5E710B5013A52B2002A92
:10A1F40001DA002010BD13B250F8234051F8233087
:10A204009C4203D8F1D24FF0FF3010BD012010BDA5
:10A2140000EB81010023884200D3704751F8042CDD
:10A2240043EA520341F8043DD307F4E770B59DF9BE
:10A2340010401E4623460546FFF7A0FD30B92246CE
:10A2440029463046FFF7D0FF012807D0234632467F
:10A2540029462846BDE87040FFF7C0BD70BD70B503
:10A264009DF910401E4623460546FFF7B7FD38B159
:10A274002346324629462846BDE87040FFF77EBD96
:10A2840070BD2DE9F04FB5B004AD9DF9F8401F46FF
:10A29400804623462846FFF7D1FD24AB21463846A5
:10A2A40002930395FFF777FFC0EB841005B26B426E
:10A2B40003F01F034FF0200695FBF6F676B205F087
:10A2C4001F0914A858BFC3F100093146FFF73FFF27
:10A2D400B9F1000F30B22BDD14AB002203EB800088
:10A2E400C9F1200E1346A34217D327B27B00019372
:10A2F40014AB03EB870704F1FF3934AB012603EBFE
:10A304008909002D55DB34AB0022C6F101009646C5
:10A3140003EB860A03EB80002DE057F8236006FA6E
:10A3240009F10A4340F8232026FA0EF20133DAE752
:10A3340014AB2246394603EB8000FFF749FFD4E70C
:10A344000FFA81FC5AF8C83C53F82CB034AB03EB39
:10A35400810151F8803CABEB0303A3EB0E039B4557
:10A3640004D034BF4FF0010E4FF0000E50F8C81C5B
:10A3740041F82C300132019B51B29942E0DBA6EB4B
:10A384000E035E42214614A85E41FFF741FF34AB41
:10A3940003EB8403214653F8802C59F8803C38465B
:10A3A40043EAC273013D49F8803C2DB2FFF730FF08
:10A3B400A7E734AB03EB8606224656F8C81C404692
:10A3C400FFF706FF35B0BDE8F08F30B51C4691B0FD
:10A3D400054693F900306846FFF730FDD4F8AC30F9
:10A3E40069462846984711B030BD13460A46FFF720
:10A3F400ECBF2DE9F04793F9006092B0044689461A
:10A404001046314615469846FFF7ACFE002840F04A
:10A4140093804246494602A8FFF7E7FF434602AA53
:10A4240021460AA8FFF7D1FF02A908464246FFF7D2
:10A43400DCFF43462A4649464846FFF7C6FF08F173
:10A444000407424629462846FFF7CFFF3B462A46E3
:10A45400214620460096FFF7E9FE3B462A46294658
:10A4640028460096FFF7E2FE3B462A462146284648
:10A474000096FFF7F4FE43462A4621462046FFF79E
:10A48400A4FF3B462246214628460096FFF7CEFE0F
:10A494003B4600962A4621462046FFF7C7FE23681E
:10A4A400DB074CD533463A4621462046FFF766FC87
:10A4B400314682462046FFF7ABFE06F18043013B5E
:10A4C40054F8230040EACA7044F823004246214667
:10A4D4002846FFF78AFF3B460AAA294628460096E3
:10A4E400FFF7BDFE3B460AAA294628460096FFF719
:10A4F400B6FE0AA908463B462A460096FFF7AFFE79
:10A5040043460AAA21462046FFF75FFF02AA3B46BC
:10A51400104621460096FFF7A2FE32462946204601
:10A52400FFF756FE324649462846FFF751FE3246AB
:10A5340002A94846FFF74CFE12B0BDE8F087314649
:10A544002046FFF765FEC1E72DE9F04115468AB0C4
:10A55400044688462022002102A802F062FE2E1D35
:10A5640095F9007003232A46414620460293FFF7DB
:10A574003CFF334602AA214620460097FFF76FFEB0
:10A584002B46424621462046FFF71FFF00973346DD
:10A5940005F1840221462046FFF748FE0AB0BDE8D3
:10A5A400F0810000F0B5082289B00C460646FFF79A
:10A5B4000FFECB6A03930B6B04934B6B05938B6B6E
:10A5C4000693CB6B0793002708236A4669466846BF
:10A5D400029701970097FFF7D1FB082305466A46C7
:10A5E40031463046FFF7CAFB236B0393636B049336
:10A5F400A36B0593E36B0693054408236A466946F7
:10A6040068460797FFF7BAFB082305446A463146B4
:10A614003046FFF7B3FB236A0093636A0193A36A8E
:10A624000293A36B0693E36B0793054408236A46DE
:10A6340031463046059704970397FFF79FFB636AFB
:10A644000093A36A0193E36AA26B0293636B03937F
:10A6540004920693E26B236A0592054407936A46C3
:10A66400082331463046FFF789FBE36A0093236BE6
:10A674000193636B0293236A0693A36A07930544C9
:10A6840008236A4631463046059704970397FFF737
:10A69400A5FB236B0093636B0193A36B0293E36BA2
:10A6A4000393636A0693E36A07932D1A08236A46A1
:10A6B4003146304605970497FFF790FB636B009390
:10A6C400A36B0193E36B0293236A0393636A04937A
:10A6D400A36A0593236B07932D1A08236A46314610
:10A6E40030460697FFF77AFBA36B0093E36B019365
:10A6F400636A0393A36A0493E36A0593636B079302
:10A704002D1A08236A463146304602970697FFF70A
:10A7140065FB2D1A0D4C0FD435B90822314620465D
:10A72400FFF762FD01280FD0082322463146304648
:10A73400FFF754FB2D1AEFE7082322463146304633
:10A74400FFF71CFB2D18F7D409B0F0BD28D5020083
:10A75400F0B5154689B01C4607460E461A462946EA
:10A764006846FFF742FE23466A4639463846FFF7F5
:10A774002CFE23462A4669466846FFF726FE2346F2
:10A784006A4631463046FFF720FE09B0F0BD2DE998
:10A79400F0438BB01446129D15F9046B00961F46C6
:10A7A400804689462B460246214602A8FFF757FDFC
:10A7B40002A9129A0846FFF718FE129B02AA414604
:10A7C4004046FFF702FE129B02AA21462046FFF7ED
:10A7D400FCFD2B464A46394638460096FFF73FFDB6
:10A7E400129A394602A8FFF700FE02A92B464246F8
:10A7F40008460096FFF733FD02A92B462246084679
:10A804000096FFF72CFD2B46424621462046009633
:10A81400FFF725FD129B224649464846FFF7D5FD22
:10A824002B4602AA414620460096FFF718FD129BCC
:10A83400224639463846FFF7C8FD2B464A46394674
:10A8440038460096FFF70BFD324602A92046FFF773
:10A85400BFFC0BB0BDE8F0832DE9F047B3F902402B
:10A8640088461E4604F11F012023073491FBF3F7A9
:10A8740008234FFA87F994FBF3F4944228BF144653
:10A8840049460546FFF763FC22464146FFF766FA50
:10A89400B6F90230E4009C4221D9E41A05EB8701A1
:10A8A4000022C4F120078D420FD324364A4629469C
:10A8B4003046FFF799FC012811D04B463246294611
:10A8C4002846BDE8F047FFF789BA51F8040C20FA8E
:10A8D40004F3134341F8043D00FA07F2E3E7BDE84B
:10A8E400F08770B5036813F001050646144605D0D9
:10A8F40013460A460146FFF741FA0546214630460B
:10A90400FFF786FC45B104F18042013A56F8223043
:10A9140043F0004346F8223070BDF0B50F46A1B0B5
:10A9240006461946384615461C46FFF71BFC28B157
:10A9340021463046FFF70BFC21B0F0BD22463946D4
:10A944006846FFF745FC2246294608A8FFF740FC65
:10A95400214610A8FFF7FBFB0123214618A81093FA
:10A96400FFF7F5FB224608A96846FFF73DFC28B926
:10A97400224610A93046FFF72BFCDDE7009BDA07DF
:10A9840009D421466846FFF743FC2246294610A80D
:10A99400FFF7A7FFE6E7089BDB0707D4214608A8D3
:10A9A400FFF736FC2246294618A8F1E7002823467B
:10A9B4001CDD08AA69466846FFF710FA2146684676
:10A9C400FFF726FC224618A910A8FFF70DFC002863
:10A9D40005DA10A923462A460846FFF7CFF910A93D
:10A9E400234618AA0846FFF7F9F9CEE708A96A46EC
:10A9F4000846FFF7F3F9214608A8FFF709FC2246A9
:10AA040010A918A8FFF7F0FB002805DA18A92346B7
:10AA14002A460846FFF7B2F918A9234610AA0846A1
:10AA2400FFF7DCF9BEE700000048704724D50200B8
:10AA34002DE9F04FEDB01F46DDF8D8810590B8F947
:10AA4400026098F9004020231F3696FBF3F676B295
:10AA540006F1FF3924AB002543F829506CAB03EB16
:10AA640089034CA88A469346394698F9012043F84D
:10AA7400805C43F8605CFFF771F998F9012054A8F1
:10AA8400B918FFF76BF921464CA8FFF76BFB074693
:10AA9400002840F03981214654A8FFF763FB029057
:10AAA400002840F0338108F1240332464CA91846AB
:10AAB4000393FFF799FB012840F02A81324654A9F9
:10AAC4000398FFF791FB0128069040F021811CAD0B
:10AAD4000CAF3346039A54A92846FFF71EFF029B86
:10AAE40047F829305A46514638464346FFF7B4FEE4
:10AAF40039463846039B00962A46FFF7C2FB0DF5FC
:10AB0400B879039B00962A464CA914A8FFF7B9FB11
:10AB1400484622460599FFF75BFBA30009EB030AAD
:10AB24000793059BA100591808F1440B504622468F
:10AB3400FFF74EFB5946224634A8FFF749FBA30012
:10AB44000BEB030122463CA8FFF742FB08F1040388
:10AB5400494634AA284600940493FFF780FB5346E1
:10AB64004A463CA934A8CDF80080FFF710FE2346DE
:10AB7400049A29462846FFF7D0FE2A4651464846FD
:10AB84004346FFF7E5FD029B08933146059B0A9374
:10AB94003846CDF824B0CDF82C90FFF7FCFA3146B6
:10ABA400814614A8FFF7F7FA8145B8BF81461FFA1A
:10ABB40089F909F1FF3B0FFA8BFB59463846FFF739
:10ABC400E0FA5946071C14A818BF0127FFF7D9FA61
:10ABD400002814BF022300231F430DF1200A22463C
:10ABE4005AF8277024A83946FFF7F2FA0DF1B00B92
:10ABF400A300F91822465846FFF7EAFA21462846E8
:10AC0400FFF7A5FAA9F10209069B2B600FFA89F94F
:10AC14000DF1900AB9F1000F23DA2346049A29466C
:10AC24002846FFF77AFE43462A4659465046FFF720
:10AC34008FFD324651460398FFF7D6FA012805D016
:10AC44003346039A51465046FFF7C8F8013C64B2B4
:10AC5400002C4CDA029BB3FA83F040096DB0BDE8D6
:10AC6400F08F43462A46D8F8A47059465046B84750
:10AC740049460CA8FFF785FA4946071C14A818BFD3
:10AC84000127FFF77EFA002814BF02200020384372
:10AC940008AB53F820702FB32246394634A8FFF787
:10ACA40097FA079B2246F9183CA8FFF791FA434606
:10ACB4002A463CA934A8FFF74BFD049B009434AA10
:10ACC400514644A8FFF7CBFA5B4652463CA934A848
:10ACD400CDF80080FFF75BFD434644AA2946284689
:10ACE400FFF773FB09F1FF390FFA89F992E723B2F1
:10ACF4006CAA02EB83025AF8233052F8802C53409A
:10AD0400029A1A430292A1E72846A7E73846A5E724
:10AD14000298A3E7007800F00100704741DF704714
:10AD2400014B01221A7070472C2A0020BFF34F8F69
:10AD34000549064BCA6802F4E0621343CB60BFF3D3
:10AD44004F8F00BFFDE700BF00ED00E00400FA05EF
:10AD5400024B034800221A7001F0F8BB2C2A002091
:10AD640031AD0200C31E10B50446042B09D8DFE838
:10AD740003F00303080F0F0009494FF4701000F0AB
:10AD8400F5F9084B1B6853B12046BDE8104018473D
:10AD9400054B064800221A7001F0D8FBF1E710BDFC
:10ADA40055AD0200302A00202C2A002031AD0200CB
:10ADB40000207047404B414A10B518604FF0A04343
:10ADC4000020C3F8402701F04FFB044630B900F0DF
:10ADD40099FA01283AD003D302283DD0032010BDAC
:10ADE4004FF08043D3F8000410F4803021D04FF4A6
:10ADF4008032C3F80024204601F078FC002858D0A3
:10AE04004FF0A043D3F81035DB0352D54FF0804305
:10AE1400D3F81C3513F0B10F4BD101F0E7FB002838
:10AE2400DCD1274B1870274801F090FB00F054F850
:10AE3400D4E7D3F8202512F0A90F1DBFD3F820259D
:10AE440002F05602C3F820250120D5E71C4B1E480A
:10AE54001C7001F07BFBC1E74FF4A02400F0D0FA92
:10AE64001A4A20211820FDF7ABFA08B1FEF753FF68
:10AE74004FF08043D3F81C2512F0B10F1EBFD3F856
:10AE84001C2502F04E02C3F81C25FFF791FF002891
:10AE9400A4D120460E4900F069F90E4800F04EFC9A
:10AEA40000289BD100F0D2FAFDF714FBFFF736FF20
:10AEB400F8E74FF47014D1E7302A00200C000300A7
:10AEC4002C2A002025AD020031AD02000C26002002
:10AED40055AD020069AD020008B5074B4FF0FF32D3
:10AEE400C3F88020C3F8802101F063F84FF4805048
:10AEF400BDE8084000F026B800E100E0C1F30B0310
:10AF040030B5EBB9B0F53C3F1AD8000B013900EB72
:10AF1400113101244FF08042814201D2002030BD22
:10AF240000F01F03450904FA03F303D0012D04D0F4
:10AF34000130F1E7C2F80036FAE7C2F80436F7E761
:10AF44000720ECE730B505461B4889B00022C0F560
:10AF54003C31FFF7D3FFEFF305820023D5E900412D
:10AF640083F3148883F3108883F3118883F313889D
:10AF7400C2F308023AB984F308884FF0FF339E46BF
:10AF8400084709B030BD4FF0FF35203CCDE9003310
:10AF9400CDE902330493CDE905514FF080732022AB
:10AFA40069462046079302F013F984F30888AE46F5
:10AFB4006FF006031847E4E70080020037B56FF02E
:10AFC4007F42154C057BD4F804358A4228BF0A46D3
:10AFD400891A13444A1E942A23F07F4305F5A87264
:10AFE4009BBF963B96314160416044F822300B4B45
:10AFF4004FF4F86043F001039847094BAA00134447
:10B0040000221A601B680193019B4FF48033AB400C
:10B01400C4F8043303B030BD00100140D4D502009D
:10B02400401101401B48027884B0002A2FD14FF010
:10B034008043A021D3F81834DB035EBF164B0122F2
:10B044001A60164A0023136012680392039A144A82
:10B05400136012680292029A124A136012680192F3
:10B06400019A114A82F811134FF40031C2F8801189
:10B07400116002F1C04202F53C520C49C2F8083595
:10B0840001230B6002211360C2F80413037004B09F
:10B09400704700BF382A002008000040001101401A
:10B0A400401101404411014000E100E0081001405A
:10B0B400284B1A6813B542B127490A6801320A605D
:10B0C40000221A601B680093009B244B1A68A2B1EB
:10B0D40000221A6022481B68027B0193019B4FF4F3
:10B0E400803393401F4AC2F808334168044601BBC9
:10B0F4008168D9B9236803B198471B4B1A6832B3E6
:10B1040000221A6016481B68027F0193019B4FF4CA
:10B1140080339340134AC2F808334169044659B155
:10B12400103002B0BDE81040FFF748BFFFF746FFFC
:10B13400E0E7FFF743FFE0E7816911B11030FFF763
:10B144003DFF23691BB102B0BDE81040184702B0AF
:10B1540010BD00BF04110140342A002040110140F9
:10B16400A4230020001001404411014070B50B4B92
:10B174001C68227B4FF480339340094A0E46C2F880
:10B184000833054640B1FFF74DFF266029462046A7
:10B19400BDE87040FFF712BF70BD00BFC42300209C
:10B1A4000010014070B5074B1C6805460E46A060B0
:10B1B400FFF738FF266029462046BDE87040FFF7B8
:10B1C400FDBE00BFC8230020014B01221A70704746
:10B1D400392A002038B50F4BDA6A5D6A9C6CAC2AB8
:10B1E40010D15B6B1C44ED1A2A4621460A4801F033
:10B1F400B9FF68B100F02AF929462046BDE8384075
:10B2040000F0B8BE002CEFD101F05AFA0446EBE787
:10B2140038BD00BF6C3E0020008002002DE9F74FCE
:10B2240080468946A9EB0804240B02F6FF761546EE
:10B2340000F0E6F8082C28BF08242303DFF860B0E8
:10B244000193360B0DB92B4626E0B4422CBFB2460F
:10B25400A2464FF00002514640462CBF2F46019FA4
:10B2640000F070FE0346B8B9FA1C22F00302494606
:10B27400404600F059FE034670B9DBF83030ED1B50
:10B28400B844B9441F44CBF8307001F065F9A6EB1B
:10B294000A0603460028D5D0184603B0BDE8F08F4F
:10B2A4006C3E002010B501F01DFA154A42F2040369
:10B2B400916CCC5803F1A34303F5471303F2D7531E
:10B2C4009C4218D1D2E90C32934216D01844194446
:10B2D400884204D10020BDE8104001F03DB9D21AE3
:10B2E40002F6FF7222F47F6222F00F02FFF796FF4C
:10B2F4000028EFD010BD0320FCE70020FAE700BFD0
:10B304006C3E002070B5264CE36AA52B32D003D8DE
:10B31400012B0BD000202CE0AA2B2FD0AC2BF9D181
:10B32400FFF7C0FF40BBFFF755FF25E0A56C666A39
:10B3340001F0B0F9226B1044A91888422AD101F017
:10B34400A9F900223146FDF731F9A36A984202BFF8
:10B354000123C4E90703A6610024124801F08EF911
:10B36400114B124800221A7001F0F6F880B944B962
:10B37400012070BDFFF796FF0124EEE7FFF72AFFD7
:10B38400EAE7012001F0B2F90028F1D00220F0E749
:10B394000320EEE7B21AFFF741FF0028DCD1CEE725
:10B3A4006C3E0020903E0020392A0020CDB10200DE
:10B3B4000A4AD2F800347BB109480023D2F80815B0
:10B3C400D940C90748BF03F5C07103F1010348BF61
:10B3D40042F82100072BF1D1704700BF0000014063
:10B3E4003546526EFFF7E4BF044B002282B01A6068
:10B3F4001B680193019B02B0704700BF000101402C
:10B4040038B50E4C2278BAB90D4BD3F800248AB162
:10B41400D3F80455FFF7CCFF40F61650A842B8BF46
:10B4240028460849A0F54860FFF7BCFE064B4FF4D8
:10B4340080321A600123237038BD00BF3A2A0020ED
:10B4440000000140E9B3020000E100E0034BD3F83F
:10B4540000340BB1FFF7ACBF704700BF00000140E0
:10B464000C4B1B78062B10D10B4B1B681A070CD105
:10B474000A4B186800F0F003302B08D000F0E0000D
:10B48400A0F1400358425841704700207047012002
:10B49400704700BFE00F00F0E40F00F0E80F00F089
:10B4A400094B1B78062B0CD1084B1B681A0708D1D3
:10B4B400074B186800F0F000A0F1300358425841DF
:10B4C40070470020704700BFE00F00F0E40F00F069
:10B4D400E80F00F008B5FFF7C3FF28B16F4B704ABF
:10B4E4001B68C3F304231360FFF7DAFF10B16D4B3D
:10B4F4006D4A1A606D4B6E4A1B68C3F34233136086
:10B50400FFF7CEFF20B16B4AD36823F08073D3607A
:10B514004FF080430022C3F80C21C3F81021C3F874
:10B524003825FFF7BDFF10B1634B03221A60FFF704
:10B53400B7FF40B1614B05221A6001229A670022CD
:10B544009A603F225A604FF080525D4BD2F8041447
:10B55400C3F82015D2F80814C3F82415D2F80C1433
:10B56400C3F82815D2F81014C3F82C15D2F8141403
:10B57400C3F83015D2F81814C3F83415D2F81C14D3
:10B58400C3F84015D2F82014C3F84415D2F8241493
:10B59400C3F84815D2F82814C3F84C15D2F82C1463
:10B5A400C3F85015D2F83014C3F85415D2F8341433
:10B5B400C3F86015D2F83814C3F86415D2F83C14F3
:10B5C400C3F86815D2F84014C3F86C15D2F84424B3
:10B5D400C3F8702503F54053FB22C3F81825FFF781
:10B5E4003FFF28B1374B384A1B6803F04F03136001
:10B5F4004FF08043D3F80024D20744BF6FF0010218
:10B60400C3F80024314B1B68062B08D1304B1B6850
:10B61400062B01BF2F4A136843F4806313604FF075
:10B624001023D3F80022002A03DBD3F80432002BC2
:10B634002FDA294B0122C3F80425D3F80024002A69
:10B64400FBD04FF010221521C2F80012D3F80024C9
:10B65400002AFBD04FF010231522C3F804221E4BFE
:10B664001A46D3F800140029FBD00021C3F80415AE
:10B67400D2F80034002BFBD0BFF34F8F1749184B7F
:10B68400CA6802F4E0621343CB60BFF34F8F00BF7C
:10B69400FDE7144B144A1A6008BD00BF24030010D0
:10B6A4004035014074C007400DF0ADBA44020010AB
:10B6B4003C050040F0ED00E0A005004010560040BD
:10B6C40000C0004058020010E40E00403001001099
:10B6D400340100103C17004000E0014000ED00E0A0
:10B6E4000400FA05CC2300200090D00313681F2B1C
:10B6F40010B5144607D900220830FDF7CBFB08B972
:10B704002023236010BD48F21450FBE70830FDF7F6
:10B714009DBB0830FDF76ABB062810B5044602D16C
:10B72400002000F093FF044B1B681BB12046BDE8CA
:10B734001040184710BD00BF3C2A002008B5074B35
:10B7440018600020FFF7E8FF054800F067FF20B904
:10B754000348BDE8084000F023BE08BD3C2A002091
:10B764001DB702006CDF70476DDF704772DF7047F2
:10B7740073DF704774DF704775DF704776DF70479B
:10B784007ADF70477CDF70477DDF70477FDF70476B
:10B7940086DF70478FDF7047A8DF7047AADF7047E6
:10B7A400ADDF7047AEDF7047B0DF7047B1DF704781
:10B7B400B5DF704762DF704766DF704713DF70479D
:10B7C4007FB50023CDF80A30ADF80E300A4BADF842
:10B7D40006109B89ADF8083001238DF80A300DF16D
:10B7E4000603CDE90430054B02A91888FFF7DAFFF8
:10B7F40007B05DF804FB00BFAA3A0020D223002062
:10B8040001460148FCF7F0BF00D3020030B518220E
:10B814008DB000210DEB020001F003FD28230893F5
:10B824001623ADF806300023CDF80E30CDF81230D3
:10B83400ADF816301A4B02930222062109251A701C
:10B8440099701A71032159220124D9705A710DF18A
:10B854000601FE2258198DF818408DF82D40ADF8D8
:10B864000C505C709A71FFF78FFFB8B9BDF80620D1
:10B874001D721119D971BDF80C301A44094BADF879
:10B884000C2002A906AA1846FFF770FF30B91878F1
:10B89400FFF770FF21461878FFF76AFF0DB030BD3F
:10B8A400BE3A0020D0230020F0B503881A2B8BB0B9
:10B8B400044650D015D8112B62D006D8012B00F0C5
:10B8C400BE80102B4ED00BB0F0BD132B00F08C803B
:10B8D400142BF8D100231A4619468088FFF758FF25
:10B8E4007AE0512B00F0B1802FD8212B00F0958005
:10B8F400502BE8D18F4EC288B3889A42E3D18E4848
:10B90400FCF74FFF05460028DDD0228A04F112011E
:10B9140001F05EFC1822002104A801F082FC082337
:10B924008DF81030854B0693854B0596CDE9073588
:10B9340004A8238AADF8243000F028FD0028C2D0E2
:10B9440029467D48FCF750FFBDE7552B2CD0562BDC
:10B954006BD0522BB7D100231A461946A088FFF7A3
:10B9640025FF39E0774B82881A80774A12681C4693
:10B974000AB10120904775492088FFF7FDFEA2E730
:10B98400704B4FF6FF721A80714B1B685A0704D430
:10B99400FFF73CFF08B1FEF7BEF96B4B1B68002BA9
:10B9A40091D0022098478EE7C188F6291AD8CB1E79
:10B9B4009B070DD0CB1F9BB2013B5A4202F00302FE
:10B9C40003F0030301F1FF3158BF5342C91A89B28E
:10B9D4005C4B1888FFF7ECFE00283FF474AFFEF7C9
:10B9E4009AF970E7F721F3E70023564CADF81230CB
:10B9F4000223ADF8103004AA02AB42F605212088D8
:10BA04000593FFF7CDFE08B1FEF785F900231A462A
:10BA140085212088FFF7BAFEDEE70AA9002321F872
:10BA2400183D8088FFF7B6FED6E78379002B7FF4B4
:10BA34004AAF444B13211888FFF7A0FECCE7414BD3
:10BA440000211888FFF7B8FEC6E78379002B3FF47E
:10BA54003AAF022B7FF437AF364900898A89904286
:10BA64000E467FF430AFA27B012A7FF42CAF002274
:10BA74000120CDE904228DF81600208AADF81800C3
:10BA8400304D608AADF81A0004F114008DF81030BE
:10BA94000790ADF80A20ADF80830098A288801AB70
:10BAA40002AA0393FFF77CFE2F4660B91846FFF7FE
:10BAB40031F940B940F2FD1304A92888ADF81430D7
:10BAC400FFF772FEFFE6002304A93888ADF81430AE
:10BAD400FFF76AFE014600287FF4F5AE182204A899
:10BAE40001F09FFB237D154A8DF81030022B05963B
:10BAF400069216D0062B0ED0012B0ED1154800F05D
:10BB0400A5FD154B1A88154B1A80637D0893D4F84C
:10BB14001630099301E0637D089304A800F036FC15
:10BB2400D1E6A27D637D43EA02230B4A13800B4ACC
:10BB34001380F2E7AA3A002000D30200CDBB020032
:10BB440005B80200D2230020E43A00202AD70200DC
:10BB5400E03A0020ECD20200E83A0020EA3A002061
:10BB640014490A6838B512F0010321D0124B9842E7
:10BB74001ED0124B18884FF6FF73984213D042F030
:10BB840004020A601321FFF7F9FD90B90C4DC82493
:10BB940045F001054FF47A40A847013CFAD1BDE8CD
:10BBA400384001F0B7B9074B1878FFF7E3FDF6E723
:10BBB400002038BDE03A0020ECD20200D22300205D
:10BBC40024D70200D023002010B5044686B01122E9
:10BBD400002101A801F025FB2378082B0BD1374A5B
:10BBE400374913880988013B9BB21380D9B1D3B973
:10BBF400032311802370627823788DF80530602147
:10BC0400012A8DF804108DF806200ED00B2A52D18B
:10BC140000F0A6F98DF80700002000F09BF904213C
:10BC240001A8FFF7CDFD06B010BD062B1DD0082BD3
:10BC340001D0032B3FD1D4E90123110A8DF8072049
:10BC44008DF80810110C120E8DF80A201A0A8DF8BE
:10BC54000B308DF80C201A0C1B0E8DF809108DF882
:10BC64000D208DF80E300B21DAE7E1688DF807100E
:10BC7400D4E90123080A8DF80800080C090E8DF890
:10BC84000A10110A8DF80B208DF80C10110C120EED
:10BC94008DF80E201A0A8DF80F308DF810201A0C2A
:10BCA4001B0E8DF80D108DF809008DF811208DF8FC
:10BCB40012300F21B4E70321B2E700BFEA3A0020B3
:10BCC400E83A00202DE9F0434E4B95B04FF6FF7251
:10BCD40014A91A8080464FF65963012021F8483D83
:10BCE40042468DF80A00FFF757FD0446002840F04D
:10BCF4008580454B04AA03F1100615461868596857
:10BD0400144603C40833B3422246F7D108F10201B2
:10BD14002846FFF74FFD044600286FD101461C2238
:10BD24000DA801F07EFA9DF83430ADF8044043F0DC
:10BD340004038DF834300223ADF80C3098F8023047
:10BD44008DF80E304FF00109C4F3072369F30303A0
:10BD540069F307138DF80530E3B243EA090369F385
:10BD640042038DF80630F423CDE90A4401ADADF861
:10BD74002C3003AE08F1040308AA0DA9B8F800009A
:10BD84000C94CDE90865FFF709FD27460446A8BBD6
:10BD940001461C220DA801F044FA9DF83430ADF898
:10BDA400044043F018038DF8343098F802308DF8CD
:10BDB4000E30C4F3072369F3030369F307138DF803
:10BDC4000530FBB243EA090369F34203DBB243F0F3
:10BDD40010038DF806301723CDE90A4408AAADF8FC
:10BDE4002C300DA908F10C03B8F800000C94ADF840
:10BDF4000C90CDE90865FFF7D1FC0446204615B048
:10BE0400BDE8F083D22300200CD7020030B5334CB8
:10BE1400236813F0010585B05DD1314B18603148BA
:10BE2400FCF7A8FC029500F0B6F800284CD12E4887
:10BE3400FFF7C4FC002847D101F030F8002843D1B3
:10BE440002A801F0F7F800283ED102A9012001F070
:10BE5400FBF8002838D102A801F05AF9002833D1A0
:10BE640000F0B4FB30B1214800F0A4FB236843F098
:10BE740002032360112302A88DF80430FFF774FC39
:10BE840010BB9DF8093002A801338DF80930FFF783
:10BE940069FCC8B923689B0718D51449886904311B
:10BEA40082B201A8FFF76EFC70B91148FFF768FC75
:10BEB40050B91048FFF706FF30B9FFF7A7FC18B9CF
:10BEC400236843F00103236005B030BD0A4801F044
:10BED400DBF90949E4E70020F6E700BFE03A002077
:10BEE400E43A002000D3020000800200402A00202F
:10BEF4002AD70200AA3A00201CD7020043690BB1DA
:10BF0400C0681847704700000449054B002290425E
:10BF140008BF19460348FCF780BC00BF90D3020059
:10BF240064D302009023002007B5009313460A4609
:10BF340001460348FCF775FC03B05DF804FB00BF41
:10BF44009023002013460A4601460148FCF76FBCC3
:10BF540090230020014B18700B207047EC3A00200E
:10BF6400024B002218781A70704700BFEC3A002088
:10BF740018DF704730B585B0054610220C46684678
:10BF8400002101F04EF9A408684601950294FFF7D8
:10BF9400EFFF05B030BD1FB5002304A8CDE9013380
:10BFA4000393022340F8103DFFF7E2FF05B05DF86C
:10BFB40004FB4FF000534FF480521A600020704786
:10BFC400014B06201B681847F83A00200A2803D9B9
:10BFD4000B38C0B2FFF7BEBF7047000010B504466F
:10BFE40086B00020FCF72AFC014630B1164A18211D
:10BFF4002046FCF709FA06B010BD1822684601F085
:10C0040010F904238DF80030104B196D104B1B6888
:10C01400994211D10F4B186800F042FD8DF80100D0
:10C02400FFF7D4FFD4E901138DF80100684698475F
:10C03400094800F091FADEE701238DF801306846E3
:10C04400D4E901139847D6E7E1BF02006C3E002013
:10C05400F03A0020F43A0020C5BF020070B504464F
:10C0640086B0162200210DF1020001F0DAF82378DF
:10C074008DF8003001228DF801200C2B00F2818113
:10C08400DFE813F00D0079000F00790079007F01DB
:10C094007900700079006E001C002F0074008DF888
:10C0A4000420D4E90113684698479DF80130012B18
:10C0B40000F04D81A74B05201B6847E14FF08053EA
:10C0C400D3F800210192D3F804210292D3F80C2171
:10C0D40092020492D3F81021920203921B690593F1
:10C0E400DFE743F204039C4D18689C492E6A227CC6
:10C0F400884214BF01230223012E08BF013352B921
:10C1040002238DF80430EB680293954B0393C3F537
:10C1140038330493C5E7012A12D1884210D14FF471
:10C1240040531B78142B8ABF43F2140300231B686B
:10C1340002934FF48053039343F208031B68E8E728
:10C144009A4209D201238DF80430AB68029300F0BF
:10C15400C7FAAB690390DCE7FF238DF80430A0E74E
:10C16400237CFAE7238AADF804309AE7794B072059
:10C174001B68984795E7062B7A4A01D0012B01D119
:10C18400216911701178012904D0022956D00023A5
:10C19400137099E0013B072B83D801A252F823F0D6
:10C1A400C5C10200A7C0020035C2020005C20200D8
:10C1B400A7C002002FC20200A7C00200DDC1020016
:10C1C400644B03201B689847606900F06BFBFFF722
:10C1D400FDFE8DF8010064E7A18A206900F07EFB72
:10C1E400FFF7F4FE5C4B8DF80100DA6B1B6C0293D5
:10C1F400E3680192002B3FF454AF2069984750E75D
:10C2040059495A4800F090FBFFF7E0FE01288DF8E9
:10C2140001007FF446AF002000F09EF900283FF4AF
:10C2240040AF0A238DF801303BE74FF4807303934A
:10C23400494BDA6B1B6C0192029332E7013B072BEB
:10C244003FF62FAF01A252F823F000BF71C20200E3
:10C25400A7C0020023C302002DC30200A7C002002E
:10C2640075C30200A7C00200D1C2020000F056FB51
:10C2740008B90823D6E762690AB90323D2E7C2F3EF
:10C284000B0333B1344B38495B6D096813448B425B
:10C29400F3D1B2F5805F01D90423C3E72E4B3249B1
:10C2A400586D096815188D42E3D85A64DA6C9A649B
:10C2B400186518632D4B1B68002201211844FFF7F1
:10C2C40041FE00283FF4EDAE0523ABE700F026FB6A
:10C2D4000028CED0204DA28AD5E914315B1A696CAE
:10C2E40013448B42C9D8214B2E6B1868D4E903310F
:10C2F4003044FFF719FE08B1E3687EE7A18A2B6B8F
:10C3040020690B442B632B6D05F148020B442B650C
:10C31400FCF74CF92B6DA86402900193C1E60E4B17
:10C324009A6C02921B6DF8E70B4BD3E91402596C1B
:10C33400821A8A429DD19A6C58650021204659641C
:10C34400DA64FFF74BFE034B1B680420984706B0E2
:10C3540070BD00BFF83A00206C3E0020DBE5B1510F
:10C3640000800200D4230020F03A0020F43A002098
:10C37400054B9A6C1B6D01934FF480530292039307
:10C384008FE602234EE700BF6C3E002083681BB19A
:10C39400024A1821FCF738B80720704761C0020030
:10C3A40038B50546C0B10120FFF7AEFD044648B9D3
:10C3B40000F050FA00F0B2FA30B9084B00201D60CA
:10C3C400FFF7C8FD204638BD0549064800F0ACFA21
:10C3D4000128F2D00324F5E70724F3E7F83A002014
:10C3E400F03A0020F43A00202DE9F04115464FF4CC
:10C3F400DC72064688461F4600F0B4FE18B905B143
:10C40400A847002006E0002201213046FFF79AFDEC
:10C4140010B10320BDE8F0814FF4DC724146384688
:10C4240000F0D6FE2B464FF4DC7239463046FFF757
:10C434007BFD0028E5D0ECE770B5084C05460022EA
:10C444005821201DFCF7B2F82A4620602146044BEF
:10C454000448BDE87040FFF7C7BF00BF6C3E002032
:10C46400FC3A002000F002002DE9F041FFF74CFDFA
:10C47400044618B103242046BDE8F081294D2B68F9
:10C4840001331CD002465821281DFCF78FF82D6873
:10C494002B1A5D425D41244E37683B680133B04638
:10C4A40034D000225821381DFCF780F83B688342C1
:10C4B4002CD130682DB94FF4DC7201461CE00546DE
:10C4C400E9E754221949043000F04CFE0546D8F837
:10C4D400000017494FF480725C3000F043FE3DB910
:10C4E40030B94FF4DC720F49124800F071FEC2E714
:10C4F400D8F800104FF4DC720E4800F069FE0020FA
:10C50400FFF79AFF04460028B5D0B3E7002DE8D121
:10C51400084C4FF4DC722946204600F082FE0123C9
:10C524006360ECE700F00200D823002004F002006E
:10C534005CF002006C3E002002460248024B006898
:10C54400FFF752BFD8230020B43C00200149FFF775
:10C55400F3BF00BF00F0020038B505460020FFF726
:10C564006BFF044618B903492846FFF7E5FF204648
:10C5740038BD00BF6C3E002029DF704738B50C4D34
:10C584000446D5F89C3178B101330FD1002218212B
:10C594000430FCF70BF821462060072205F5CE7025
:10C5A400BDE83840FFF7E8BF0E2038BD0820FCE79F
:10C5B40000F0020008B528B11C22034900F008FE6F
:10C5C400002008BD0E20FCE79CF1020010B5064CCB
:10C5D400002218212046FBF7E9FF54F8043C1B1AFB
:10C5E4005842584110BD00BFA0F1020008B50A4BE3
:10C5F400D3F85C21013203D1D3F89C31013309D043
:10C604004FF43C30FDF70AFA572203494FF43C300B
:10C61400FDF71CFA002008BD6C3E0020F8B5094E59
:10C62400094CA41B0746E4080025A54201D10020BB
:10C63400F8BD56F83530384698470028F8D101350A
:10C64400F3E700BFECD20200F4D20200F8B5094EC1
:10C65400094CA41B0746E4080025A54201D100208B
:10C66400F8BD06EBC50338465B6898470028F7D148
:10C674000135F2E7ECD20200F4D2020008B50C2234
:10C68400002100F0CEFD024B00221A6308BD00BF5A
:10C694006C3E002043F204031A68084B9A4201BF1F
:10C6A40043F20803186800F6FF7020F47F600CBFA3
:10C6B40020F00F004FF48050704700BFDBE5B1510C
:10C6C40008B5FFF7E7FF054B9B69184400F6FF70B8
:10C6D40020F47F6020F00F0008BD00BF6C3E0020F6
:10C6E400FFF7D8BF4FF480507047000010B50B4CD3
:10C6F400236A012B0DD170B1E3694BB1FFF7CAFF77
:10C704000022A169FBF752FFE3691B1A5842584102
:10C7140010BD0020FCE71846FAE700BF6C3E00207D
:10C724002DE9F74F264CDFF8A4B0DFF8A490984623
:10C73400236A019305461646002743F2040A012F93
:10C7440015D0022F21D0FFF7BBFF76B1019B5A1EF3
:10C7540053425341A9EB0000A84200D3D9B1C3B955
:10C76400022F28D07A1CD7B2E9E73346F2E7FFF765
:10C7740091FFB8F1000F06D1DAF80030B3EB0B03E8
:10C7840018BF0123E6E73B46E4E701234FF480505A
:10C79400E0E7A84211D317B10A48FFF76FFF00265C
:10C7A40001230948C4E90463FFF768FF6562304662
:10C7B40003B0BDE8F08FA842EED20420F8E700BF32
:10C7C4006C3E0020843E0020903E0020DBE5B15109
:10C7D4000060020030B50E490E4C8A6B85B06D4680
:10C7E40028465C31FCF796FD95E80F0084E80F00BD
:10C7F400094B0A4AE36000231360094A094913609C
:10C80400094A204605B0BDE83040FDF722B800BF14
:10C814006C3E00206442002031C80200C440002065
:10C82400C0400020B8D60200E84000205B689A6847
:10C83400054B9A4207D1D0E90123044901320A6029
:10C84400034A013B136070473CD60200C4400020F9
:10C85400C040002030B50E4D0E4CAB6B91B0ABB167
:10C86400FFF7B8FF90B16B6A83B101232370FDF722
:10C87400D7F9684620220849FDF705FA40236A469D
:10C8840006490748FDF724F911B030BD0023EDE750
:10C894006C3E0020FC420020E4D4020074420020DC
:10C8A400B0D4020038B5054678B1B0F5807F0ED813
:10C8B400084C094B0021202204F13800197021632F
:10C8C40000F0AFFCA563012038BD0320FCE7042081
:10C8D400FAE700BF6C3E0020FC42002070B50E4C0D
:10C8E4000646E06BA36B42189A420D4611D85C30A1
:10C8F4000A462044314600F06BFCE36B04F140022D
:10C904002B4429463046E363FBF750FE20640120A4
:10C9140070BD0320FCE700BF6C3E0020014B18787B
:10C92400704700BFFC4200202DE9F04F4E4CD4E983
:10C934000E329A4287B006460F4640F08E804B4B2B
:10C944001A7898464AB1FFF7BBFE3060636A3B60D1
:10C954000124204607B0BDE8F08FFFF73BFF002815
:10C964007DD0434B93F89C401A4614B91B78002B96
:10C9740075D0002333603B605CB13E4C92F8383193
:10C98400A4F199054FF0200BCDF814B024B9132469
:10C99400DFE72346384DF5E7002B45D105AB01937E
:10C9A400DFF8F4A0354B364ACDF800A01B681268B6
:10C9B40034493548FDF71AF9A0BB2378402B31D10F
:10C9C400DFF8D89003931A46611C484600F000FC37
:10C9D40059464846FDF763F9039B2C492C48CDE999
:10C9E40000935246059BFDF78FF8002837D1281D88
:10C9F40000F016F901280446ABD195F8593088F8AF
:10CA040000009BB995F8682082B1E86E48B3002213
:10CA1400386001231146FFF783FED0B9FFF750FEBB
:10CA2400306096E70A2494E7162492E713F0010095
:10CA340003D095F85A0000B1E86D9B07E6D595F848
:10CA44006030002BE2D0134B6A6EC3F538339A4240
:10CA540001D904247DE71044D8E7082479E70524A4
:10CA640077E70F2475E700BF6C3E0020FC420020EE
:10CA7400E840002021420020EC400020C04000207B
:10CA8400C4400020DCD5020048400020744200204D
:10CA94000043002000800200C8400020BC42002067
:10CAA4002DE9F043544BDFF8749193F89C20534CD8
:10CAB40003F1A40508338DB0002A08BF1D464FF0CA
:10CAC400200806460F46424605F16F0104A8CDF83A
:10CAD4000C80FDF7CDF803AB0193CDF800903B46F5
:10CAE400324647494748FDF781F820B117254648A3
:10CAF400FFF7C4FD12E0424604A9484600F032FBA9
:10CB04000028F3D195F85530CBB96A682362012126
:10CB1400E162A260A36CC4E909730125202200210B
:10CB24003A4800F07EFBF422FF21394800F079FBFB
:10CB3400002328462363A6640DB0BDE8F08303F008
:10CB44000208DB0752D542F20403F15803F1A34370
:10CB540003F5471303F2D75399424AD1AB6D03F55A
:10CB6400FF5203F6FF731F32C3F30B03D31A42F2CF
:10CB74000802B2589A423CD343F204031B688B4226
:10CB840014BF012300231AD14FF440531B78142BF4
:10CB940081BF43F2140318681E4BB0FBF3F006F593
:10CBA40000531B78142B89BF42F214030023F3585B
:10CBB400184A88BFB3FBF2F3C31A18BF01237BB131
:10CBC400B8F1000F15D01448FFF758FDAC23E36209
:10CBD400AB6D6363B8F1000F9CD06B68E36099E7B9
:10CBE400B8F1000F14BFAC23A523F0E7AA23E36236
:10CBF400F0E705257BE700BFE84000206C3E0020FD
:10CC0400DCD5020048400020903E0020A43E0020D5
:10CC1400C83E002040420F00843E002024400020F3
:10CC240090F85430F0B5002B57D090F85530032BC2
:10CC340053D890F86D20032A4DD1027A002A4CD0A3
:10CC4400C268342A4BD143F20401027C0C682549A2
:10CC54008C422FD112B3416901B300F114050021B4
:10CC640043F20C06CCB2A24201D8122015E055F8CA
:10CC740021703488A74201F10101F3D102782AB36B
:10CC8400012B4268184B1BD89B689A4234BF00237F
:10CC94000123002B14BF01201020F0BD2BB9012A61
:10CCA400ECD94269002AE9D1DFE713F1FF3218BF5A
:10CCB4000122F7E712B14269002AD6D10278F1E7DE
:10CCC400DB689A4294BF00230123E2E7012B14BFDF
:10CCD4000F200120E1E71420DFE70F20DDE711201A
:10CCE400DBE700BFDBE5B1516C3E002038B1054BFA
:10CCF4000360054B436001230372002070470E203C
:10CD0400704700BF37CD020011CD020069B10B7826
:10CD1400022B0CD1022804D003280CBF11200820B8
:10CD2400704703230B70002070470E2070470820C3
:10CD3400704710B50C4681B10B78042B04D8DFE89A
:10CD440003F00E05030E0E00112010BDFFF716FCB4
:10CD54000028FAD102232370F7E70E20F5E7082014
:10CD6400F3E70000F8B5044680691649164A10F83E
:10CD7400025C521A0C230E46B2FBF3F23DB9206951
:10CD8400534300229A4205D10123236013E04FF05C
:10CD9400FF30F5E7B758AF4201EB020E06EB020C89
:10CDA4000ED1471C08D1DEF80850D4E90223D4E997
:10CDB4000001A8472060F8BDDCF804708742F2D077
:10CDC4000C32DFE7F4D2020000D302001EF0040F9D
:10CDD4000CBFEFF30880EFF30980FFF7C3BF00BF78
:10CDE40010DF704711DF704713B5044609496846E0
:10CDF400FBF74CFF019808B902B010BDD0E900312F
:10CE04002046984718B16846FBF74AFFF2E711201D
:10CE1400F2E700BF38D7020013B504460749684655
:10CE2400FBF734FF019B0BB902B010BD2046D3E9D8
:10CE3400002190476846FBF733FFF3E750D7020021
:10CE4400064B9A6822B11A6822F480021A6070476D
:10CE5400034B4FF48002C3F880207047F023002076
:10CE640000E100E00B4991F816335A09EC23134111
:10CE7400DB0706D5084B9A683AB94FF480030B6078
:10CE8400704742F20200FCF746BF1A6842F480027F
:10CE94001A60704700E100E0F0230020F7B5184F56
:10CEA4003C785CBB174E012520463570FFF79CFF8C
:10CEB400112820D02046FFF7AFFF134B18680190CC
:10CEC40002A800F8054DFBF737FB104901A8FFF74E
:10CED40087FF0446B0FA80F0400938709DF80300DB
:10CEE400FBF74EFB3CB90A4B34701C70FFF7BAFFDA
:10CEF4002846FFF791FF204603B0F0BD0824FAE767
:10CF0400054300200443002032D70200159D02008F
:10CF140006430020F7B5154F3B7813B3144E012098
:10CF24003070FFF761FF11284FF000051BD002207D
:10CF3400FFF772FF02A800F8015DFBF7FDFAFFF7A7
:10CF440051FF04469DF807003D70FBF719FB2CB90F
:10CF54003470FFF775FF0320FFF75EFF204603B030
:10CF6400F0BD0824FAE72C46F8E700BF054300208B
:10CF740004430020054B1B7833B1054B1B780BB1E0
:10CF8400FFF7C8BFFFF78ABF08207047044300209B
:10CF940005430020014B1878704700BF054300206B
:10CFA40007B508496846FBF771FE019B13B903B046
:10CFB4005DF804FBD3E9002090476846FBF770FE58
:10CFC400F3E700BF44D70200FFF7EABF60DF704712
:10CFD40069DF704761DF704730B5114DADF5017DF4
:10CFE4004FF4FA740DF1020103A8ADF80240FFF703
:10CFF400F1FF70B9294601A8FBF748FE029B002BFC
:10D00400F0D003A8D3E90021904701A8FBF748FE1C
:10D01400F4E7052801D0FCF77EFE0DF5017D30BD57
:10D024005CD70200024B1B780BB1FFF7D5BF7047EA
:10D034000743002018B1034B0360002070470E2003
:10D04400704700BF902300207FB506460C46002998
:10D054005AD02E4B0B600C22002101A800F0E1F8FD
:10D06400012506232268ADF8083001A920208DF897
:10D0740004608DF80650FFF7ABFF0C22002101A8D5
:10D0840000F0CFF822688DF8055001A94020FFF781
:10D094009FFF0C22002101A800F0C3F8F7232268A7
:10D0A400ADF8063001A923208DF80460FFF790FF46
:10D0B4000C22002101A800F0B4F822688DF8045075
:10D0C40001A92846FFF784FF0C22002101A800F0E3
:10D0D400A8F84FF4B0632268019301A9A120FFF7D7
:10D0E40077FF0C22002101A800F09BF89DF8043082
:10D0F40022686FF3000301A9A0208DF80430FFF724
:10D1040067FF002004B070BD0E20FBE790230020D1
:10D1140008B5FFF75BFF10B9014B01221A7008BD77
:10D12400074300204BDF70471FB50D4C01A8FFF7E4
:10D13400F9FF70B9214602A8FBF7A8FD039B002B59
:10D14400F4D00198D3E90021904702A8FBF7A8FD89
:10D15400F4E7052801D0FCF7DEFD04B010BD00BFE4
:10D1640068D7020092B370B4134640EA010212F089
:10D17400030F17D05A1E10D004780B789C420CD1A0
:10D18400431C4C1C024418462146934205D00133EB
:10D19400013406780D78AE42F5D000780B78C01AC9
:10D1A40070BC70470F2BE5D904680A689442E1D13A
:10D1B400041D0A1D20461146043B042BDAD904340D
:10D1C400043206680D68AE42F4D0D3E700207047FD
:10D1D400844640EA010313F0030F18D18446202A41
:10D1E4000BD32DE9F007B1E8F807A0E8F807A2F19E
:10D1F4002002202AF7D2BDE8F007042A07D351F809
:10D20400043B40F8043BA2F10402042AF7D2002AAA
:10D2140005D011F8013B00F8013B013AF9D1604611
:10D2240070478446002A2DD010F0030F04D000F874
:10D23400011B013A26D0F7E7C9B241EA012141EACC
:10D244000141202A12D3A2F120022DE9F0030B465A
:10D254000C460D460E460F4688468946A0E8FA035A
:10D26400203AFBD2BDE8F00320320BD0042A05D3C8
:10D2740040F8041B043A05D0042AF9D200F8011B33
:10D28400013AFBD16046704700F1010110F0030F31
:10D2940011D010F8012B002A23D010F0030F0AD06C
:10D2A40010F8012B002A1CD010F0030F03D010F843
:10D2B400012B002A15D02DE970004FF001324FF0F8
:10D2C400803350F8044BA4EB020525EA04051D4005
:10D2D40000D1F6E7A0F1040070BC10F8012B002A7D
:08D2E400FBD1A0EB0100704733
:08D2EC0011BE020065BB020047
:0CD2F4000000000003000000F1CC02006C
:10D300005C2A0020983A0020A93A0020642A0020D4
:04D31000F400000025
:08D31400ADB8020000000000AA
:10D31C0029D00200000000002DD102000000000006
:08D32C00F58902000000000079
:08D33400B58B020000000000AF
:08D33C00118B0200000000004B
:10D34400000000000000000001BF02000010000007
:04D3540000000300D2
:10D358000010000004000000010000008D88020099
:10D36800B1880200C18802002D890200D18802001C
:10D37800998802009D880200A18802000010000020
:10D388000400000001000000398A0200198A020026
:10D39800098A0200418C0200F58B0200DD89020037
:10D3A800E1890200E5890200982F8A429144377189
:10D3B800CFFBC0B5A5DBB5E95BC25639F111F15910
:10D3C800A4823F92D55E1CAB98AA07D8015B831252
:10D3D800BE853124C37D0C55745DBE72FEB1DE80FE
:10D3E800A706DC9B74F19BC1C1699BE48647BEEF2D
:10D3F800C69DC10FCCA10C246F2CE92DAA84744AB8
:10D40800DCA9B05CDA88F97652513E986DC631A82D
:10D41800C82703B0C77F59BFF30BE0C64791A7D50C
:10D428005163CA0667292914850AB72738211B2E94
:10D43800FC6D2C4D130D385354730A65BB0A6A767C
:10D448002EC9C281852C7292A1E8BFA24B661AA888
:10D45800708B4BC2A3516CC719E892D1240699D698
:10D4680085350EF470A06A1016C1A419086C371E11
:10D478004C774827B5BCB034B30C1C394AAAD84EEF
:10D488004FCA9C5BF36F2E68EE828F746F63A5782A
:10D498001478C8840802C78CFAFFBE90EB6C50A4BD
:10D4A800F7A3F9BEF27871C64800280000204000B2
:10D4B8002DAA0200F99302009B930200ED98020046
:10D4C8005F9902007F990200DD9202009D9202009E
:10D4D80075980200000000001112131440DCAEE53C
:10D4E800F0E2AD2DC5112F9C6E5C66DBD15FDACA08
:10D4F80036E3EF8A3A4FF012F6CECE5C50A9879207
:10D50800DECA0E8AB5DC8DCEC418A174E174B1717F
:10D518007A35AE726EAA3668463850A708200001E0
:10D52800FFFFFFFFFFFFFFFFFFFFFFFF00000000FF
:10D53800000000000000000001000000FFFFFFFFE6
:10D54800512563FCC2CAB9F3849E17A7ADFAE6BC9D
:10D55800FFFFFFFFFFFFFFFF00000000FFFFFFFFCF
:10D5680096C298D84539A1F4A033EB2D817D037775
:10D57800F240A463E5E6BCF847422CE1F2D1176B10
:10D58800F551BF376840B6CBCE5E316B5733CE2BE3
:10D59800169E0F7C4AEBE78E9B7F1AFEE242E34F12
:10D5A8004B60D2273E3CCE3BF6B053CCB0061D654F
:10D5B800BC86987655BDEBB3E7933AAAD835C65AD8
:10D5C800F7A302004DA50200A9A502000738FDD85F
:10D5D8007047000017B7020011B70200F1B6020049
:10D5E800200000007800000000000000011101FF89
:10D5F8000100000000000000021702FE9400000075
:10D608003CD60200000000000000000000000000FE
:10D6180001010000010000000000000002050000F8
:10D6280021000000000000000000000000000000D1
:10D6380000000000011104FC0400000000000000CC
:10D64800021104FC0400000000000000032104FC97
:10D658000410000000000000041101FF0100000098
:10D6680000000000051102FE040000000000000098
:10D67800061104FC0400000000000000071104FC6F
:10D688000400000000000000081701FF220000004D
:10D6980018D60200091001FF01000000B4D60200EC
:10D6A8000000000000000000000000000000000072
:10D6B800011704FC98000000F4D50200021704FCCE
:10D6C800DC000000DCD602000000000000000000C2
:10D6D800000000000107000098000000F4D50200D7
:10D6E8000201000001000000000000000305000026
:10D6F80041000000000000000000000000000000E1
:10D708000000000050EADA308883B89F604F15F3B4
:10D718000000C98E44667554617267000738FDD8E9
:10D7280070470C000C0000005802001004010000B3
:10D738002CD3020034D30200080000001CD30200DE
:10D748002CD302000800000034D302003CD30200AE
:10D758000800000014D302001CD3020008000000D7
:0CD768003CD3020044D302000800000083
:10D7740000000000000000000000000000000000A5
:10D784000000000000000000000000000100000094
:10D79400A4230020B42300200090D003FF00FFFF47
:08D7A4000100000000E002009A
:020000020000FC
:020000041000EA
:041014000080020056
:0410180000E00200F2
:0400000320008379DD
:00000001FF
